:020000040000fa
:100000000200d2021003000000000002100b0000ea
:10001000000000021013000000000002101b00008e
:10002000000000021023000000000002102b00005e
:10003000000000021033000000000002103b00002e
:10004000000000021043000000000002104b0000fe
:10005000000000021053000000000002105b0000ce
:10006000000000021063000000000002106b00009e
:10007000000000021073000000000002107b00006e
:10008000000000021083000000000002108b00003e
:10009000000000020da7e490000278a4790180021c
:1000a000f0a3d8fcd9fa7aa57b009000e47809790e
:1000b000018015e493a3ad82ae838a828b83f0a383
:1000c000aa82ab838d828e83d8e9d9e71203b1125d
:1000d0000dc675d00075813f751c8075931e5392b7
:1000e000fe0200960010000000000200bb0102e7c3
:1000f00022c0925392fec082c08389828a83bb0051
:1001000003e08002e493d083d082d09222bb00151a
:10011000c0925392fec082c0838a838982f0d083ca
:10012000d082d09222bb0101f722cac0e0e6f309d7
:1001300008dafad0e0fa22cac0e0e0f208a3dafa5c
:10014000d0e0fa22600c08c6c313c618c613c6d581
:10015000e0f422700422600d18c6c333c608c6330b
:10016000c6d5e0f41822e4735392fed083d08225e2
:100170001cf8c51cc39824fbcef208e520f208e960
:10018000c0e07908e709f208defad0e0f9eff208fa
:10019000d0e0fed0e0f208eef208e473a81ce2fe24
:1001a00008e208f520e9c0e07908e208f709dffa7b
:1001b000e208ffd0e0f9e208c0e0e208c0e0881cf5
:1001c0005392fe22e584f208e585f222e208f584e6
:1001d000e2f585227403800474028000c9c0e0e562
:1001e0001cc399f51cc912012ad0e0f922740380be
:1001f00000c8c0e0e51cc398f51cc8120137d0e068
:10020000f82275bc0075bc005392fe22800f8a82d2
:100210008b835392fee0f5bda3aa82ab83ecf8ed8d
:10022000f9e824ff1ce934fffde84970e15392fe30
:1002300022e5bdf9e5bcfae9fb5392fe227400f514
:10024000d374022408f5d25392fe22a2afe433f80d
:10025000c2af5392fe906270e0a2e740f5e9c3336b
:10026000906272f0906270e0d2e0f0e0a2e740fbb2
:10027000e8a2e092af2274fa120168a2af33f8c28a
:10028000afed900002f0eca3f0a37462f0a37473de
:10029000f0a3e4f0e9a3f0a37412f0a37442f0eb2e
:1002a000906272f0ea906271f07400f5d575d40234
:1002b00075d601906270e0d2e1f0e0a2e740fbe881
:1002c000a2e092af7f0102019c5392fe906276e021
:1002d00075c6807480659e70fa9062707408f02212
:1002e000c008c0098908750900740b780812015309
:1002f000fae5094480fbd009d0085392fe2274f736
:10030000120168909093e064bf7063e5c7f508122e
:10031000020275c7007c937d007a007b9012020c6c
:100320007c5d7d077aa37b9012020c909094e01480
:10033000f5097f00801674032ffef91202e0eec467
:10034000540ff5c77c007d0812020c0fefc395090e
:1003500040e48508c71202318a088b09a808a90958
:10036000909095e0687003a3e069703e8038e5c71f
:10037000f5087fa57e02eef91202e08a828b83eef9
:10038000c4540ff5c778007908e02fffa3e824ffd5
:1003900018e934fff9e84970f00eeec3943040d606
:1003a0008508c7ef70047901800279007f0402019b
:1003b0009c5392fe900001e090001af0e59d5418c5
:1003c00064107005e0a2e04035e5c7f8790075c714
:1003d00000909000e0640270010988c7e9a2e05033
:1003e0001d1202fee960179000017403f00592905f
:1003f00000a5e0f582a3e0f58305921201661202e2
:10040000c9900001e4f012023d12069e1206ce12bf
:10041000071e80fb74f8120168151c151ca81c121d
:1004200001c490620ee0fee4f0906211e0ffa2e4ed
:1004300050197480f09000227407f01206276006ad
:10044000120643120166900022e4f0efa2e2500b84
:10045000906211e4f0900022f08060900022e0f8b9
:100460007402687042906216e0ff9000391201ed4c
:10047000eff97a207b621206da051c051c051c8f39
:100480000890003c12061c12060f2f1206321206ac
:100490002a6004744080027448906211f0e8496058
:1004a000030205fc0205df7406687006120643129b
:1004b0000166900022e06003020589efa2e040039c
:1004c0000205fc750831750900750a0078081201eb
:1004d000d479087a207b621206da051c051c051cfb
:1004e00090003ee4f0a3f0900031e054e0600e2470
:1004f000e0606a24a0604024e06071807ea3e01484
:10050000602624fe601d24fe600a24fc601f24fe79
:1005100060208067120a8e900022e0640470647488
:10052000608062120a8880ef120a8280ea120bbe93
:1005300080e5120cf580e0a3e0600e24fa600f2441
:10054000fe601024fe601180321208be80c9120abb
:10055000d680c4120b9880bf120c9780ba90003ed0
:100560007446f0a37407f012074680ab90003e7407
:100570000cf0a37408f012080c809c900022740404
:10058000f0809c7440906211f0900022e0f87401b9
:1005900068705e7f0290003ce0f8a3e0f9c3e89445
:1005a00020e994005007e8f50a7f0a8003750a20c5
:1005b0009000391201eda90a7a207b621206f30538
:1005c0001c051c051c850a0812060f250812063298
:1005d00012061cef906211f0e50ac39420501d1220
:1005e00006276006120643120166900022e4f0809e
:1005f0000b7405687006120643120166ee90620ed7
:10060000f0a81c1201cc051c051c7f0302019c9064
:100610000039e0f9a3e0faa3e0fbe922c3e0950882
:10062000f0a3e09400f02290003ee0f8a3e0f9e8a7
:100630004922f9e43afa900039e9f0a3eaf0a3eb91
:10064000f0a322059290003ee0f582a3e0f5830539
:100650009222c008c0097800742328f582e434008f
:10066000f583e95392fef008e8c3940540ea780068
:10067000742828f582e43400f583e9f008e8c3948f
:100680000540edd009d008225392fe90001b740261
:10069000f0a3e4f0900022f0790312065222c00881
:1006a000c00975082175090078081201d87c007d01
:1006b000007a407b00120dca051c051c90001b74bb
:1006c00002f090620f04f0e0a2e750fb80b553f413
:1006d000fed29043fe015392fe2212070c6010538b
:1006e00092fee012010de9240109e43afadcf0532c
:1006f00092fe2212070c60101200ec5392fef0e9f9
:10070000240109e43afadcf05392fe228a828b83b8
:10071000e9fca81ce2f908e2fa08e2fbec22eec0d0
:10072000e05392fe906206e0f8906202e0fe906272
:1007300004e0e8a2e25003120688eea2e0500312a1
:100740000414d0e0fe2274f7120168900032e070c9
:10075000030207f114600302080190001a7401f00b
:10076000900022e0f87038900037e0f8a3e0f9e854
:1007700049700d9000ab7402f0900022e40208066c
:100780009000397461f0a37400f0a3e4f0a3e8f0e2
:10079000a3e9f09000227402f09000ab048067742b
:1007a0000268705d900033e02440f508a3e0340057
:1007b000f509e508541f701285080a85090b7405b0
:1007c000780a120144a90a12024b900037e0240370
:1007d00054fcf97c617d0074047808120153aa0866
:1007e000ab09120276900022e4f09000ab74058011
:1007f0001590001a7402f0900022e4f075c9088088
:10080000069000227404f07f0402019c5392fe9033
:100810000032e06403701a90003974a7f0a37400ea
:10082000f0a3e4f0a37406f0a3e4f090002204f037
:100830002280009000227404f0225392fe9000a1c6
:10084000e4f0a3740ff02274fa120168151c151c51
:10085000a81c1201c4eafcebf87a007b000880387f
:10086000e8604d05929000a1e0fda3e0f5838d8244
:10087000a3e493fdec6d6034e96d70099000a1e094
:10088000faa3e0fb189000a1e02efea3e03400ffe5
:100890009000a1eef0a3eff09000a1e0f584a3e0ba
:1008a000f585e4059293fe70b7e860047a007b005a
:1008b000a81c1201cc051c051c7f0102019cc0086c
:1008c000120c896003020996a3e0f8a3e06003021a
:1008d0000996a3e064027002a3e060030209969007
:1008e0000031e02480600914604f14605c020996b6
:1008f000e8600302099690002ee06004780180020f
:1009000078009000a3e8f0a3e4f090002de0600ae6
:100910009000a3e04402f0a3e4f0900022e064041d
:10092000601490003974a3f0a37400f0a3e4f0a362
:100930007402120cecf0d0082290001be0640470ea
:10094000559000a3e4f0a380d0e8547ff508900010
:100950001be064047040e508c394065039741b25fd
:1009600008f582e43400f583e854806018a3a3a35b
:10097000a3a3a3a3e064037004780180027800902d
:1009800000a3e88091e582240cf58250020583e003
:10099000640370e980e39000227404809874f91273
:1009a0000168151c151ca81c1201c4e9fa90003737
:1009b000120c8f6003020a6c90001be06404600b51
:1009c000900035120c8f6003020a6c900031e054e5
:1009d0001f6009146023146012020a6c900033e057
:1009e00064017015ea90002d020a71900035e05400
:1009f0007ff508900033e0600479008077e508c354
:100a000094065068e50890620ef0741b2508f58482
:100a1000e43400f585900035e054806021ea6004fc
:100a2000741080027440906211f0ea6004740380d4
:100a300001e40592a3a3a3a3a3a3a3f08025ea60e6
:100a400004742080027480906214f0ea60047403dd
:100a50008001e4c0e0e584240cf582e43585f5836b
:100a6000d0e0f05392fe90620ee480059000227474
:100a700004f07901a81c1201cc051c051c7f0202a0
:100a8000019c790012099d22790112099d2253923d
:100a9000fe900035120c8f7018a3120c8f701290fc
:100aa0000033e0f8a3e0f9e85480fae9fbea4b6090
:100ab00002801ce8906200f090001b6009e0640274
:100ac000700c7403f022e0640370037402f022904f
:100ad00000227404f02274f812016812083a90009f
:100ae00033e0faa3e0f914600814600d146031805b
:100af000377b007a0079018033eafb7a00790212b1
:100b00000847120b83e92402f9e43afa89828a83be
:100b1000e493f8740193f990003ce8f0a3e9801c99
:100b2000eafb7a00790380047b007a0012084712fe
:100b30000b83a37b801200eca3f0a3e4f0900039b8
:100b4000e0fca3e0fda3e0feec4d4e90002270041b
:100b500074048029e064046025900037e0faa3e083
:100b6000fb90003ce0f8a3e0f9c3ea98eb99500849
:100b700090003ceaf0a3ebf09000227401f07f03b8
:100b800002019c900039eaf0a3ebf0a37480f0908e
:100b90000039e0f9a3e0fa22120c897010a3120cbc
:100ba0008f700aa3e064017002a3e06003020acf21
:100bb000900039741cf0a37400120ce2f02274f857
:100bc00012016890001be064027003020c70900038
:100bd00035120c8f6003020c70a3120c8f6003029d
:100be0000c70900034e06003020c7012083a900020
:100bf00033e07003020c787b007a00790212084718
:100c00008a088b09ae08af09ee4f6064900033e0ac
:100c1000f88e828f83a3a3a3a3a3e493c0e0e8fa92
:100c2000d0e06a70d290001b7404f0e8a3f0750a5b
:100c3000008e828f83a3a3a3a3e493f8e50ac3984d
:100c40005044850a08741d2508f582e43400f583b4
:100c5000e4f07b007a0079041208478a828b83e5ee
:100c60008245836007a3a3a3e49370e6050a80c1cd
:100c70009000227404f0800e90001cf090001b7411
:100c800003f0f9120652020b7e5392fe900033e0fd
:100c9000f8a3e0f9e8492274f812016890001be01b
:100ca00064047019900031e064817011120c8c7032
:100cb0000c900037e064017002a3e060079000220e
:100cc0007404801a900035e0241df508a3e0340078
:100cd000f509900039e508f0a3e509120ce2f002ed
:100ce0000b7ef0a3e4f0a304120cec22f0a3e4f0da
:100cf000900022042274f9120168151c151ca81c0e
:100d00001201c490001be064046003020d9a90007d
:100d100031e064016003020d9a900037120c8f706d
:100d20007912083a7b007a0079021208478a828b8e
:100d300083e5824583600fa3a3a3a3a3e493f89064
:100d4000001ce06870de7b007a0279041208478a92
:100d5000828b83e582458360410592900033e0f801
:100d6000a3e0f9900035e0faa3e0fb858284858357
:100d700085a3a3e493fcea6c7001eb600d0592a3dc
:100d8000a3a3e493fce86c4970bc741d2af582743b
:100d9000003bf583e85392fe80059000227404f036
:100da000020a745392fe2274fa120168151c151c73
:100db000eafeebffa81ceef208eff2aa1cab937957
:100dc00001120da380ee1200932274fa120168e55d
:100dd0001c2406f8e2fe08e2ffee4f6014ecf88aed
:100de000828b83e8f0a3ee24ff1eef34ffff4e70ea
:100df000f27f0102019cffffffffffffffffffffec
:100e0000fffffffffffffffffffffffffffffffff2
:100e1000ffffffffffffffffffffffffffffffffe2
:100e2000ffffffffffffffffffffffffffffffffd2
:100e3000ffffffffffffffffffffffffffffffffc2
:100e4000ffffffffffffffffffffffffffffffffb2
:100e5000ffffffffffffffffffffffffffffffffa2
:100e6000ffffffffffffffffffffffffffffffff92
:100e7000ffffffffffffffffffffffffffffffff82
:100e8000ffffffffffffffffffffffffffffffff72
:100e9000ffffffffffffffffffffffffffffffff62
:100ea000ffffffffffffffffffffffffffffffff52
:100eb000ffffffffffffffffffffffffffffffff42
:100ec000ffffffffffffffffffffffffffffffff32
:100ed000ffffffffffffffffffffffffffffffff22
:100ee000ffffffffffffffffffffffffffffffff12
:100ef000ffffffffffffffffffffffffffffffff02
:100f000012010002000000205824feff0000010230
:100f1000030109021b0001010480250904000000ef
:100f2000fe01020409210d03e84000010104030948
:100f300004120342006c00750065006700690067d9
:100f400000610016034c006f007700200045006e22
:100f50000065007200670079000a03310032003337
:100f6000003400080344004600550000ffffffff67
:100f7000ffffffffffffffffffffffffffffffff81
:100f8000ffffffffffffffffffffffffffffffff71
:100f9000ffffffffffffffffffffffffffffffff61
:100fa000ffffffffffffffffffffffffffffffff51
:100fb000ffffffffffffffffffffffffffffffff41
:100fc000ffffffffffffffffffffffffffffffff31
:100fd000ffffffffffffffffffffffffffffffff21
:100fe000ffffffffffffffffffffffffffffffff11
:100ff000ffffffffffffffffffffffffffffffff01
:101000000211080231edffffffffff023e28ffff44
:10101000ffffff023ed7ffffffffff023f8efffff4
:10102000ffffff0226c8ffffffffff023beeffffaf
:10103000ffffff024070ffffffffff023f2effff99
:10104000ffffff023eb2ffffffffffffffffffffbb
:10105000ffffff0231d3ffffffffffffffffffff97
:10106000ffffffffffffffffffffff023d65ffffe9
:10107000ffffff024000ffffffffff023de8ffff11
:10108000ffffff0231f8ffffffffffffffffffff42
:10109000ffffffbf309324000000000000000000ad
:1010a0000000787582f675837f7400121123e4794d
:1010b000347802b800028004f709d8fce4900302f7
:1010c00078a079068002f0a3d8fcd9fa7aa17b082f
:1010d000901144786379028015e493a3ad82ae83c6
:1010e0008a828b83f0a3aa82ab838d828e83d8e918
:1010f000d9e775824b75838474031211237582e8d6
:1011000075837f740012112375d00075813f75318e
:1011100000753202753303759f007593005392fe7c
:101120000210aec09ff59fe473d09f225392fed071
:1011300083d082c09fe493c0e0740193c0e0740246
:1011400093f59f220300000201020300000f00c379
:10115000a88ee8b19dcf7f5eb98b9f41efb055f46b
:1011600001fa00960064004b0032001e001400d605
:10117000be898e000106021213151429417671fff3
:10118000c1fbe84c90728be7b3518963ab23230218
:10119000841872aa612f3b51a8e53749fbc9ca0cd4
:1011a00018532cfd45e300400000fffffffffaff4e
:1011b000ffff0000800062000000ff7f00000500cc
:1011c000060007000000010001000001000102020a
:1011d0000300020000000000020201000240420f72
:1011e0000019000000093d0000e4fffffffb349bf5
:1011f0005f8000008000100000000000000200007e
:1012000000ff0000000000080501000000000001d0
:101210000805000000000000070300000080000136
:10122000000080000004000000000007090000002a
:101230000d00000104070000000000020100000290
:10124000020000070a1c1b221b281b2e1b341b3a02
:101250001ba41ac61ca81c801d141d1a1d80000486
:1012600005800004060600000080000402800004df
:1012700004800002000b000000800006003217cc42
:101280001366195614261dcc1ce21b6e1d9e1a52a5
:101290000601ffffff0000000080ffffffff0000ce
:1012a0000000c000000012112cd2d30212112cea4f
:1012b000d30212112c15d40212112c62d402121175
:1012c0002c7ad40212112ca2d40212112cf2d402c4
:1012d00012112c22d50212112c83d50212112c9f2f
:1012e000d50212112cbbd50212112ce0d50212111d
:1012f0002c39d60212112cc8da0212112c7cdb0216
:1013000012112c3d860312112c55860312112cc686
:10131000860312112c09870312112c59fb0112119b
:101320002cedfb0112112c63fc0112112c79fc0134
:1013300012112ca5fc0112112cbafc0112112c1354
:10134000fd0112112c34fd0112112c92fd0112111c
:101350002cd7fd0112112c48fe0112112c73fe0135
:1013600012112cf7fe0112112c26ff0112112c452f
:10137000ff0112112c59ff0112112c9eff011211b5
:101380002cecff0112112c76ed0212112c92ed02c1
:1013900012112cc8ed0212112cd6ed0212112c07dd
:1013a000ee0212112c34ee0212112c3dee0212113b
:1013b0002c80ee0212112c06ef0212112c73ef0298
:1013c00012112cc4ef0212112cf3ef0212112c4750
:1013d000f00212112c19f10212112c24f102121137
:1013e0002c57f10212112c88f10212112cd9f102a2
:1013f00012112c16f20212112c468a0312112c66bd
:101400008a0312112c8f8a0312112ce988031211fe
:101410002cfd880312112c57890312112c2c8b03dd
:1014200012112c438b0312112c66880312112c937a
:10143000880312112c36f10112112c9df1011211a9
:101440002ce3f10112112c0cf20112112c18f201f3
:1014500012112c3bf20112112c7ff20112112cc639
:10146000f20112112c24f30112112c77f401121144
:101470002c3ef50112112ce5f50112112c0bf60191
:1014800012112c4ff60112112cdaf60112112cef69
:10149000f60112112c2df70112112c4df70112112a
:1014a0002caff70112112cc2f70112112cadf8016b
:1014b00012112cb1f90112112c23fa0112112c0076
:1014c000800112112ca6810112112c2a8201121105
:1014d0002c7e830112112ced830112112c27840123
:1014e00012112cf1840112112c72850112112c5a47
:1014f000860112112c72870112112c6488011211bd
:101500002c9e890112112cf7890112112c5f8a017e
:1015100012112cdc8a0112112c7d8b0112112cef7f
:101520008b0112112c888c0112112cee8c011211de
:101530002c5c8d0112112cb18d0112112c398e01f0
:1015400012112cef8e0112112ca58f0112112c6794
:10155000910112112c95930112112cda93011211a1
:101560002c56940112112cbf940112112c0d9501cf
:1015700012112cb9960112112c59970112112ce558
:10158000970112112c26980112112ca79901121102
:101590002c089a0112112c1c9b0112112c129c0177
:1015a00012112c419d0112112c7c9e0112112c5400
:1015b000a00112112c12a30112112cb0a3011211bf
:1015c0002c5ca40112112c4da50112112cc0a501f7
:1015d00012112c24aa0112112c9fac0112112c6d96
:1015e000ad0112112cbfaf0112112cd5b001121197
:1015f0002cfeb10112112c15b20112112c45f5026d
:1016000012112c84f50212112cb1f50212112cdeec
:10161000f50212112ccbf60212112ca2f7021211b4
:101620002c2b850312112c84850312112ce58503c4
:1016300012112c20b90112112c3eb90112112c5b90
:10164000b90112112c78b90112112ca0ba01121192
:101650002cb8bc0112112c1ebd0112112ca7bd010a
:1016600012112ce7bd0112112c1bbe0112112c5db1
:10167000be0112112ccbbe0112112c79bf01121127
:101680002c87bf0112112cbec00112112cf4c20113
:1016900012112c7ac30112112caec30112112cf2bb
:1016a000c40112112c1bc60112112c3bc6011211d0
:1016b0002c62c60112112c9ec60112112cd1c6013a
:1016c00012112c99ca0112112cc1ca0112112c0d30
:1016d000cb0112112ce2d00112112c2ed1011211ca
:1016e0002c6fd10112112c1bd20112112ce2d2014c
:1016f00012112c6fd50112112cc9d60112112c39df
:10170000d70112112c7dd90112112cf4d90112111b
:101710002c38da0112112c84da0112112cdcda01d6
:1017200012112c7ddb0112112cc7db0112112c22ae
:10173000dc0112112c2cdc0112112c63dd011211c1
:101740002c0bde0112112c91de0112112cecde01aa
:1017500012112cacdf0112112c4de00112112ceaf8
:10176000e10112112c0be20112112c45e4011211be
:101770002c77e50112112c1ce60112112c7de601db
:1017800012112c56e70112112c5ce80112112c5495
:10179000e90112112c65e90112112c6fe9011211f6
:1017a0002c6ceb0112112cc7eb0112112cf6eb0182
:1017b00012112c5dec0112112c8cec0112112c1f5a
:1017c000ed0112112cb3ed0112112c14ee011211c6
:1017d0002c8aee0112112cc0ee0112112cf5ee0133
:1017e00012112c14ef0112112c6def0112112c8724
:1017f000ef0112112cb4ef0112112cc2ef011211e2
:101800002c01f00112112c70f00112112c00800338
:1018100012112cbc800312112cde800312112c2912
:10182000810312112c6c810312112c69890312118e
:101830002c14a00212112c40a00212112c88a0021c
:1018400012112ce4a00212112c45a10212112c0a33
:10185000a20212112c25a30212112cb7a4021211fc
:101860002c60a80212112c3eaa0212112c40ad02cb
:1018700012112c84ad0212112c70ae0212112c75b3
:10188000af0212112cefb00212112c64b10212112e
:101890002c8eb20212112c30f20212112c5cf202c8
:1018a00012112c73f20212112c77f20212112c1168
:1018b000f30212112cacf40212112c00800212114e
:1018c0002c66800212112c83800212112cb080022f
:1018d00012112cdc800212112c10810212112c5fcb
:1018e000810212112c8e810212112cf1810212112f
:1018f0002c4e820212112c1c830212112c96830290
:1019000012112c37850212112cef850212112c783e
:10191000880212112cf88b0212112c398c02121130
:101920002c928c0212112c428d0212112c0d8f025e
:1019300012112c9d8f0212112cde8f0212112c34e9
:10194000900212112c8c900212112cb290021211e2
:101950002c05910212112c46910212112cb7920201
:1019600012112cd8930212112ce9930212112c821d
:10197000950212112c98950212112cc09502121189
:101980002c5e960212112c73960212112ca596024f
:1019900012112cab970212112c42980212112c78c2
:1019a000980212112cc0980212112cb49902121133
:1019b0002c0f9a0212112cf69a0212112c699b021a
:1019c00012112cad9b0212112c939c0212112cfbb4
:1019d0009e0212112c2b9f0212112cab9f0212118e
:1019e0002cbe810312112ccb810312112cee81032a
:1019f00012112c31830312112c3e830312112c6c13
:101a0000830312112c97e80212112cb6e80212116e
:101a10002c81e90212112c27eb0212112c85eb020a
:101a200012112cdaec0212112c43ed0212112cd1fe
:101a3000870312112cff870312112c29880312111e
:101a40002ce8f70212112c71f80212112ca3f802e3
:101a500012112c13f90212112cb5f90212112cddfe
:101a6000f90212112cf78a0312112c038b031211a5
:101a70002c5c4f0012112cb24f0012112c7a500026
:101a800012112c8d520012112c2b540012112cf11a
:101a9000540012112c01560012112ca156001211e3
:101aa0002c1e570012112cd6570012112c3e5a0032
:101ab00012112cbe5a0012112c225b0012112cccd8
:101ac0005b0012112ccc5c0012112cd15d001211a4
:101ad0002c68620012112cb5640012112c60670092
:101ae00012112c3c6a0012112c3a6d0012112cf4c8
:101af0006e0012112c7e710012112c03760012114f
:101b00002c4c770012112cd9770012112c6378001d
:101b100012112cb7780012112c03fe0212112c8125
:101b2000fe0212112c97fe0212112cadfe021211b0
:101b30002cc3fe0212112ce4fe0212112cfafe023a
:101b400012112c10ff0212112c24c30212112cb4fa
:101b5000c30212112c37c40212112c5dc4021211df
:101b60002c29c50212112cdfc50212112c1fc6022e
:101b700012112ca5c60212112c17c70212112c79b2
:101b8000c70212112cf6c70212112c09c802121139
:101b90002c1dc80212112c52c80212112c84c8022a
:101ba00012112cb6c80212112cfcc80212112c3cc6
:101bb000c90212112c90c90212112c9fc9021211d4
:101bc0002ca8c90212112c3bca0212112c72cb0292
:101bd00012112c98db0212112ca7db0212112c958a
:101be000dc0212112ca7dc0212112c35de021211bc
:101bf0002ceade0212112c53df0212112c6cdf02d0
:101c000012112c82df0212112cd1df0212112c14be
:101c1000e00212112c5ee00212112ca7e002121158
:101c20002ccce00212112cece00212112c03e10288
:101c300012112c2be10212112c81e10212112cd86d
:101c4000e10212112c25e20212112c6de202121196
:101c50002c81e20212112c92e20212112ca3e20258
:101c600012112cb6e20212112cc5e20212112c75cf
:101c7000830312112ca2830312112cb0b202121191
:101c80002cd4b20212112ce9b20212112c87b30229
:101c900012112cadb30212112ce0b30212112c67f9
:101ca000c00212112c99c00212112c9cc2021211f6
:101cb0002c2efa0212112c90fa0212112cb4fa02f4
:101cc00012112c03fb0212112c57fb0212112cf8db
:101cd000fb0212112c11fc0212112c94cb021211d6
:101ce0002cb1cb0212112cc1cc0212112c20cd022e
:101cf00012112cc8cd0212112c47cf0212112cf355
:101d0000cf0212112c41d00212112ca6d0021211b6
:101d10002c0cd10212112c5ed10212112cead1022c
:101d200012112c65d20212112c3ed30212112cdaa0
:101d3000780012112c2e7b0012112c627b001211e4
:101d40002c7e7b0012112cb37b0012112ce07b0047
:101d500012112c107c0012112c3f7c0012112c73dc
:101d60007c0012112c9b7c0012112cd87c001211cb
:101d70002cfa7c0012112cc97d0012112c1d7e0042
:101d800012112c387e0012112c1bfc0212112c8215
:101d9000fc0212112ce2fc0212112ce4fc021211c2
:101da0002cfafc0212112c85fd0212112c3787032c
:101db00012112c55870312112cd4e20212112cb6e9
:101dc000e30212112c9de40212112ca5e40212115f
:101dd0002cade40212112c06e50212112ca8e5022a
:101de00012112ca5e60212112cd8e60212112ca910
:101df000e70212112c07e80212112ca31000121195
:101e00002cd9890312112ca48a0312112c5b8b0389
:101e1000e066701008a3e066700a08a3e06670042c
:101e200008a3e06622c3e7960809e7960809e79643
:101e30000809e796a2d265d03322c3e09608a3e052
:101e40009608a3e09608a3e096a2d265d03322c0fc
:101e500021c3e096f52108a3e096422108a3e0966d
:101e6000422108a3e0964221a2d265d033e5217039
:101e700001d3d02122c3e7960809e7960809e7961f
:101e80000809e79622c3e09608a3e09608a3e09627
:101e900008a3e09622c021c3e096f52108a3e096ae
:101ea000422108a3e096422108a3e0964521700153
:101eb000d3d02122bb0102e722c0925392fec082fe
:101ec000c08389828a83bb0003e08002e493d083cd
:101ed000d082d09222bb0015c0925392fec082c025
:101ee000838a838982f0d083d082d09222bb010181
:101ef000f722080808eac0e0ebc0e086f0e7a4faa1
:101f0000180986f0e7a42afa180986f0e7a42afa45
:101f1000180986f0e7a42afa1986f0e7a4fbe5f091
:101f20002afa190886f0e7a42bfbe5f03afa19081b
:101f300086f0e7a42bfbe5f03afa18180986f0e7db
:101f4000a4c5f02bfbe43afa1908e7c5f0c6a426ad
:101f5000f6e5f03bfbe43afa1886f0e7a4f6e5f084
:101f60000826f6e43b08f6e43a08f6d0e0fbd0e0b9
:101f7000fa22e4cfc0e0e4cec0e0e4cdc0e0e4cc9f
:101f8000c0e075f020e626f608e633f608e633f6fc
:101f900008e633f6181818ec33fced33fdee33fe8b
:101fa000ef33ffc3ec9709ed9709ee9709ef971907
:101fb0001919400fffec97fc09ed97fd09ee97fe0c
:101fc000191906d5f0bfecf709edf709eef709ef9f
:101fd000f7191919d0e0fcd0e0fdd0e0fed0e0ff09
:101fe00022122049181818121f72122038191919b4
:101ff00022122038191919080808e618181820e7bd
:10200000e0121f7212204918181822090909e7194d
:10201000191920e7dc080808e618181820e7030259
:102020001f72122049181818121f7212204918180e
:102030001812203819191922e4c397f709e497f701
:1020400009e497f709e497f722e4c396f608e496c3
:10205000f608e496f608e496f6226017080808c623
:10206000a2e713c618c613c618c613c618c613c6e9
:10207000d5e0e9226016080808c6c313c618c613bf
:10208000c618c613c618c613c6d5e0ea22700908da
:102090000808226016181818c6c333c608c633c607
:1020a00008c633c608c633c6d5e0ea22e627f608d6
:1020b00009e637f60809e637f60809e637f622e0ba
:1020c00026f608a3e036f608a3e036f608a3e036c5
:1020d000f622e026f008a3e036f008a3e036f00888
:1020e000a3e036f022c3e697f60809e697f608095a
:1020f000e697f60809e697f622c3e0c696f608a327
:10210000e0c696f608a3e0c696f608a3e0c696f6e3
:1021100022e056f608a3e056f608a3e056f608a318
:10212000e056f622e647f60809e647f60809e647cc
:10213000f60809e647f622e046f608a3e046f60868
:10214000a3e046f608a3e046f622e046f008a3e046
:1021500046f008a3e046f008a3e046f022e066f669
:1021600008a3e066f608a3e066f608a3e066f62298
:10217000e0f608a3e0f608a3e0f608a3e0f622e6fe
:10218000f008a3e6f008a3e6f008a3e6f022e0fae0
:10219000a3e0fba3e0fca3e0fd22eaf0a3ebf0a3a5
:1021a000ecf0a3edf022e0fca3e0fda3e0fea3e051
:1021b000ff22ecf0a3edf0a3eef0a3eff022e0f8a5
:1021c000a3e0f9a3e0faa3e0fb22e8f0a3e9f0a37f
:1021d000eaf0a3ebf022cac0e0e6f0a308dafad0f6
:1021e000e0fa22cac0e0e0a30592f0a30592daf675
:1021f000d0e0ca225392fefae9fb7921e7f0a30965
:10220000dafae8f0a3ebf9f0a3ecf0a3edf0a3ee1b
:10221000f0a3eff0a3e520f0a3e5f0f0a3e592f042
:10222000a3e584f0a3e585f0a3e581f0a3e531f013
:10223000a3e532f0a3e533f0a3d0e0fad0e0f0a3b9
:10224000caf0eac0e0e0c0e07a007b00225392fed0
:10225000cac0e0ebc0e07921e0f7a309dafae0f8c0
:10226000a3e0f9a3e0fca3e0fda3e0fea3e0ffa34d
:10227000e0f520a3e0f5f0a3e0c0e0a3e0f584a33f
:10228000e0f585a3d0e0f592d0e0fbd0e0fae0f5f0
:1022900081a3e0f531a3e0f532a3e0f533a3d0e06c
:1022a000d0e0e0c0e0a3e0c0e0ea4b70027a012297
:1022b000b90010bb0008e88af084f8aaf022e4fb19
:1022c000c8fa22eb70227b10c833c8c933c9335017
:1022d00007c39ac3dbf280069a50012adbeac833af
:1022e000f4c8c933f4c9fa2275f008e4c833c8c980
:1022f00033c933c99ac99b5004c92ac93bd5f0ecec
:10230000fbc833f4c8e4c9fa22600d08c6a2e7137b
:10231000c618c613c6d5e0f322600c08c6c313c6a0
:1023200018c613c6d5e0f422700422600d18c6c387
:1023300033c608c633c6d5e0f41822253210af08dc
:10234000f532400c15338008f53240021533d2af18
:102350002200c0d0253210af08f532500c05338072
:1023600008f53250020533d2afd0d0222532f582a3
:1023700010af08f532400c15338008f532400215d5
:1023800033d2af85338322c5822532c582c58335da
:102390003310af07f5338582328007f533858232fb
:1023a000d2afc583222532f582e43533f583222569
:1023b00032f584e43533f585222532f8e43533f9f6
:1023c000222532fae43533fb222532fce43533fd95
:1023d00022e4735392fe2532c582c0e0e53334ff18
:1023e000c583c0e0e532c3958224f810af08858329
:1023f000338582328008858333858232d2afcef036
:10240000a3e520f0a37821e608f0a3defaeff0a31d
:10241000e58124faf8e608f0a3e608f0a3e608f060
:10242000a30808e608f0a3e608f0a315811581d0fb
:10243000e0fed0e0f8158115811581e8c0e0eec01e
:10244000e0225392fe2532c582c0e0e53334ffc559
:1024500083c0e0e532c3958224f910af0885833349
:102460008582328008858333858232d2afcef0a355
:10247000e520f0a37821e608f0a3defaeff0a3e56b
:102480008124fbf8e608f0a3e608f0a30808e608b4
:10249000f0a3e608f0a315811581d0e0fed0e0f8a6
:1024a00015811581e8c0e0eec0e0225392fe85332d
:1024b00083853282e0a3fee0a3f5207821e0a3f635
:1024c00008dffae0a3ffe0a3c0e0e0a3c0e0e0a3e0
:1024d000c0e0e0a3c0e0e0a3c0e010af0885823216
:1024e0008583338008858232858333d2afd083d011
:1024f000825392fe0211295392fe853383853282e4
:10250000e0a3fee0a3f5207821e0a3f608dffae0df
:10251000a3ffe0a3c0e0e0a3c0e0e0a3c0e0e0a32d
:10252000c0e010af0885823285833380088582320f
:10253000858333d2afd083d0825392fe22c0925390
:1025400092fec0d02532c582c0e0e53334ffc5839a
:10255000c0e0e532c3958224f210af08858333854d
:1025600082328008858333858232d2afc8f0a3e9f6
:10257000f0a3eaf0a3ebf0a37921e709f0a3d8fade
:10258000ecf0a3edf0a3eef0a3eff0a3d0e0f0a306
:10259000d0e0f0a3d0e0f0a3e520f0a3e5f0f0a3b5
:1025a000d0e0f0225392fe853383853282e0c0e092
:1025b000a3e0f9a3e0faa3e0fba37821e0f608a3e7
:1025c000dffae0fca3e0fda3e0fea3e0ffa3e0c090
:1025d000e0a3e0c0e0a3e0f5d0a3e0f520a3e0a3f2
:1025e000f5f0e0a3c0e010af088583338582328028
:1025f00008858333858232d2afd0e0d082d083f594
:1026000092d0e0f8d0e032e584f0a3e585f022e056
:10261000a3f584e0f58522740480067402800274b8
:1026200001c0e0f40412236cd0e01221d62274041d
:10263000800a74038006740280027401c0e0f4040e
:1026400012236cd0e01221e322d083d082c5f0e4c3
:1026500093a3c5f0c395f0f5f0e493a3c395f040c0
:1026600005e5f0048001e475f002a42582f582e519
:10267000f03583f583e493a3c0e0e493c0e022d077
:1026800083d082e9c0e0e493a3c386f0c5f095f05f
:10269000f908e493a386f0c5f095f0700be493a3da
:1026a000c3994005e9048002a3e475f002a42582e1
:1026b000f582e5f03583f583d0e0f9e493a3c0e03b
:1026c000e493c0e022ffffffc0e0c0d075d008c097
:1026d00092c082c083c0f0759800e5a8f8c2af53dd
:1026e00092fe9004d8e0d2e1f0753400e8a2e7e46d
:1026f00033fee8a2e792af1212eed0f0d083d08280
:10270000d092d0d0d0e032c082c0835392fe9004e9
:10271000a7e4f0a3f0a3f0a3f0d083d0822274f753
:1027200012244279001219de9003ef12395ceac3d9
:1027300098f8eb99f9e82404fee439ff9003fc12c1
:102740003031c3ee9cef9d40299003fa1230319056
:1027500003fee02af8a3e03bf9e8c39cf8e99df901
:10276000123040a3ecf0a3edf09003fcecf0a3eded
:1027700080239003ef122c169003fc122d5f900320
:10278000fc12395c9003f11230439003f8e07004be
:102790007402800114f07aed7b03123966800ff029
:1027a00085328285338312260f74021223517f02f1
:1027b0000224f774f7122442e9fe9003f9e0f8eee0
:1027c000600924fe601d14601a80329003f6e0a2b6
:1027d000e35009e860279003f9148020c2e2f0d2a8
:1027e000e380199003f6e0a2e2500c740868600dd3
:1027f0009003f9e0048005c2e3f0d2e2f09003f721
:10280000e070089003f574fff0804990600a122987
:10281000b549703d90618fe0c0e09003f9e0f87435
:1028200008c398f8d0e0b800028004c313d8fcf5c0
:102830002174ff6521700990600ae4f0a304801000
:10284000e5212401f8e43400f990600ae8f0a3e9f6
:10285000f012271e0227ae74f7122442e9fe24fc70
:10286000600624fe602a800d9004c0e06401705d63
:102870001216fc805890041ae0640170139004143e
:10288000e4f0ee700b7b09123134fa7900123c9db2
:10289000900414e0700890041274fff0802f90618f
:1028a0008fe0ff79001219de8b22a922900416e036
:1028b0002af8a3e039f9740f5ffae82af8e439f945
:1028c00090040c1230437a0a7b041239660227ae58
:1028d00074f712244274fe12236c122607900464cb
:1028e0001229b52412fae439fb90605ce060088a92
:1028f000828b83e0d2e1f0e82430fce439fde82467
:1029000032f584e439f58590605ae0700690605e97
:10291000e060368a828b83e0a2e14019d2e1f0e8e0
:102920002422f582e439f583122c0c1223288c82a0
:102930008d83123409e40592f0a3f0790085328288
:102940008533835392fe0227a6e8122cd039f583f3
:10295000123953858482858583e02ef0a3e03ff011
:102960008c828d830592e0fca3e0fdc30592e09c80
:10297000a3e09d50c688828983a3a3a3a3a3a3a396
:10298000a3a38582848583858a828b83e0a2e1501c
:102990000474088002743e0592f07b028882898369
:1029a0000592a3a3a3a3a3a3a3a3e0fa7900123cd7
:1029b0009d79018088123960e82274f512244274ee
:1029c000fe12236c122607123011f584e43ff585c0
:1029d0000592e0fc7003022c07ee242ef582e43f02
:1029e000f583059212395c8e828f83a3a3a3a3a3e0
:1029f000a3a3a38582238583248e828f83a3a3a38d
:102a0000a3a3a3a3a3a3aa82ab83ee24341236f715
:102a1000687003a3e069701a74026c7003022ba043
:102a200074016c607b74096c60258a828b837422cc
:102a30008059ec14606a147003022ba024fa601c05
:102a400014600c146046147003022be3022c0790f0
:102a50006008e0a2e65003022c078030ee2439f52e
:102a600082e43ff583801388828983a3a3a3e06473
:102a7000037003022c07888289831229b54970e705
:102a80008a828b83e0641370037416f07b028523c3
:102a900082852483e0fa7900123c9d7901022c0999
:102aa000ee2455123a31ee244cfce43ffdea24ffbb
:102ab000f521eb34fff522e521687003e52269700a
:102ac00079ee244d122c998e828f83122c148c82d5
:102ad0008d83e025e0f8e433f9e82403f850010998
:102ae0008e828f83a3a3a3a3123044900495e0a207
:102af000e0500d8e828f83a3a3a3a3a3a312304320
:102b00009004afe4f0a3f0a3f0a37402f090049556
:102b1000e0a2e04003022c07906062e4f08c828d1a
:102b200083e0f875f0e2a4c8aaf075f004a42af9cd
:102b3000e8123006123043022c07ea687002eb6993
:102b40006003022c07752109752200782112261bcb
:102b5000ee241bfae43ffb121e0474021223519070
:102b60000495e0a2e05007eefaeffb12336be405a8
:102b700092f0ee2422f582e43ff5830592122c0cac
:102b8000122328ee2430f582e43ff583123409ee57
:102b90002432f582e43ff583e4f0a3f07b08805a09
:102ba000e8240108500109ee245c1236f76870032e
:102bb000a3e0697052752105752200782112261b49
:102bc000ee2457fce43ffdee2424fae43ffb121e02
:102bd000047402122351eefaeffb1216f6e405928a
:102be000f08024eefaeffb1212f4e40592f0059265
:102bf000900495e0a2e0500f7b0785238285248313
:102c0000e0fa7900123c9d7900023146122d75746c
:102c100003782122a3a3e028f0a3e039f02274f87e
:102c200012244274fe12236c122607900464e0f50d
:102c300084a3e0f5851229bae9704e1228d0e97014
:102c400048e584242ef582e43585f583e02401f0ff
:102c5000a3e03400f0906008e0c0e0e5842436f59d
:102c600082e43585f583d0e0f0e584122cd03585fb
:102c7000122c9d0592a3a3e028f0a3e039f0059261
:102c8000900464123a371239668532828533831292
:102c9000260f74021223518032f582e43ff583122d
:102ca0002ca322e0f8a3e0f9e828f8e933f922eeb2
:102cb000122cd03ff58312301d24fcf8e934fff9c3
:102cc0008e828f83a3a3a3a31230437f010224f734
:102cd000241ef582e42274f712244274fe12236c3f
:102ce0001226078a828b83a3a3ac82ad839004b49f
:102cf000ea241ef584e43bf5850592e0f8a3e0f9ab
:102d0000e828f8e933f9900497e0f521a3e01233bd
:102d1000ed0592e028f8a3e039f98c828d8312301a
:102d2000439004af122d688c828d83122d5f900426
:102d3000b1122d687a207b4e1222b0882189228c14
:102d4000828d83e09521f0a3e09522f09004b612e5
:102d50002d68e828f8e933f9e8122ffe02279fc30f
:102d6000e098f0a3e099f022123960900497122db8
:102d7000751233f322e0f521a3e0f5222274f31259
:102d8000244274fe12236c122607123011f523e43c
:102d90003ff524852382f583e0640c701190600870
:102da000e054036009852382852483740df0ee24aa
:102db00012f584e43ff5850592e0a2e35008c2e3f2
:102dc000f00592022fe28e828f830592a3a3858263
:102dd00021858322906062e0601079101219de85ef
:102de0002182852283eaf0a3ebf01229bae960037d
:102df000022feb1228d0e96003022feb906008e06d
:102e0000c0e0ee2436f582e43ff583d0e0f0906137
:102e1000d5e0f89061d7e06805926005e0d2e280e5
:102e200003e0c2e2f005929004b1123a379060627a
:102e3000e06016ea24c0faeb3437fb123c729004cf
:102e4000b612301d122ffe8012123c5c9004b61296
:102e50002c9f906064e028f0a3e03912303724ff03
:102e6000f0a3e034fff0ee242b1236f79004b3f019
:102e7000ee2420123a31ee242ef525e43ff526ee1d
:102e8000245cf584e43ff585ea4b7003022f209023
:102e90000499e0f8852382852483e0fc701e1230bb
:102ea00022707dee24391230257075e8a2e0407062
:102eb000ea2401f8e43bf9900497804a740d6c70a1
:102ec0005f123022705aee24391230257052e8a277
:102ed000e0404d858482858583852584852685050a
:102ee00092e0f8a3e0f90592e0c398f8a3e099f91d
:102ef000ea24010a50010bc398eb999004975006fd
:102f0000eaf0a3eb8004e8f0a3e9123037f8a3e07d
:102f1000f99004b4123043eefaeffb122cd6805a2b
:102f20009004977401f0a3e4f0ee241e122c99850e
:102f30002182852283122c169004af12395c8521e0
:102f400082852283122d5f852382852483e0640c91
:102f50007028852582852683e02402f8a3e03400ca
:102f6000f90592e0faa3e0fbc3e89ae99b400b85e0
:102f7000238285248374020592f08e828f8353927c
:102f8000fea3a3a3a3a3a385828485838590606405
:102f900012395c7a717b021222b08922e82405f88a
:102fa000e43522f98584828585831230438e828fb1
:102fb00083a3a3a3a3123a37858482858583e0f88f
:102fc000c3ea98eb99a2d265d0335007ea0592f094
:102fd000a3ebf05392fe1239598525828526831280
:102fe0002c16900464123a37123966853282853382
:102ff0008312260f74021223517f060224f7123027
:1030000006e8f0a3e92224eaf8e93402f9906064c2
:1030100022900464e0fea3e0ffee240a22122ca317
:10302000e822ee2432f582e43ff583123031ec4d94
:1030300022e0fca3e0fd22f0852182852283e022ac
:103040009003efe8f0a3e9f02274f512244274fe35
:1030500012236c1226078031c2e512312fc0e09096
:1030600004bee0123114d0e0f09004bee004f0a3fe
:10307000e004f0a3e004f09004c2e0700c7401f0ee
:103080007b007a007900123c9d90605ae0f5219017
:103090006002e0a2e050047800800590605de0f8f6
:1030a0009004bfe0fae52128f8e43400f9e86a70fa
:1030b00001e960589004bee0f52374012523547f94
:1030c000f521e523123114e0f808089004bee02849
:1030d000f074802521f582e43460f5830592900434
:1030e00064e0f8a3e0c82408f584e438f585e0a29c
:1030f000e70592e04003023058d2e5f01231262471
:10310000db12312ffa1231264a023068853282856d
:103110003383803b12311822547ff8748028f58263
:10312000e43460f583229004bee0123118e022f00e
:1031300012313422900464e0f8a3e0c82408f58238
:10314000e438f583e0228532828533835392fe1280
:10315000260f74021223517f040224f774f51224ff
:103160004274fe12236c1226078921059290046492
:10317000e0f582a3e0f583858284858385a3a3a3fc
:10318000a3a3a3a3a3e0a2e740469004c1e0f89064
:103190006054e0c398f5229004c1e02522f0ae828d
:1031a000af838011ee2439fae43ffb12161eea4b7e
:1031b000600312182285222374ff2523f522047050
:1031c000e3e521a2e640097900eefaeffb1217864b
:1031d000023146c0e074f112253d8535c675a70061
:1031e00075a10079501219fc7f010225a4c0d07589
:1031f000d01875bf00d0d032c0e0c0d075d018c094
:1032000092c082c083c0f08535c6e591fe759b00f3
:10321000f4f5915392fe906002e0a2e05004780031
:10322000800278087900e844015e6003123049eebc
:10323000a2e55004f912315ceea2e75029e5a8f8a6
:10324000c2af9004d8e0d2e0f0753400e8a2e7e421
:1032500033f9e8a2e792afe594a2e240097594033e
:10326000e594a2e250faeea2e64003023338906001
:1032700061e0f99004bfe4f09004c1f0900464129e
:103280003a378a828b83a3a3a3a3a3a3a3a3e02497
:1032900010601224fc600924fc700f1227b38066b2
:1032a0001228578061121642805c900494e06005f9
:1032b0001460148023906060e06480601be0c0e0d4
:1032c000123355d0e08010906058e0f890605ce0d8
:1032d00028f8123355e028f0906060e064806016b2
:1032e000e0c0e0900464e0f8a3e0c82413f582e4b1
:1032f00038f583d0e0f0900495e0a2e05005122d5f
:103300007d8003122c1e906059e0f89004a7e028fd
:10331000f0906058e0f89004a8e028f090605a120d
:10332000334c90605e12334c90605ce0f89004aadd
:10333000e028f01216308004a2e75003123a3dd084
:10334000f0d083d082d092d0d0d0e032e0f8900498
:10335000a9e028f022ea242cf582e43bf583e0fa88
:10336000746f2af582e43404f5832274f712244240
:10337000ea242af582e43bf583e025e0f8e433f91a
:1033800074bc28f582740839f583e02432f8a3e090
:103390003400f9ea122cd03bf583e0f521a3e012ca
:1033a00033ede8241ff8e93403f97a207b03122275
:1033b000b088218922ac21ad227a717b021222b021
:1033c0008a218b22740578211223289004b11234ab
:1033d00009ecf8edf97a717b021222b09004af1279
:1033e00030439004b6ecf0a3edf00227aef52212c4
:1033f00033f322e88521f0a4c8aaf08522f0a42a9c
:10340000fa8521f0e9a42af922e521f0a3e522f0ca
:103410002274f712244274fe12236c1226079004c1
:1034200064123031123959ec2429f582e43df583d8
:10343000ec242bfae43dfb8a848b85740168497087
:1034400012e0f80592e028fac39425402974db2a9b
:10345000fa8023e0f521e88521f0a4f8aaf085217f
:10346000f0e9a42af90592e0fae82af8e439f97ab1
:10347000257b001222b0eaf0ea131313541ff8ec74
:1034800028f8e43df9e82424f582e439f58305922f
:10349000e0c0e074075af8d0e0b800028004c3131b
:1034a000d8fca2e040288005e8cac39afaec24e5db
:1034b000f582e43df583e0f8eac39850ebec2af896
:1034c000e43df9e824c0f582e439f583e0faec2420
:1034d0002cf582e43df583ea02279f74f61224421c
:1034e00074fe12236c12260790041be090600260a9
:1034f00004740e8002740ff0900415e0906001f0e7
:103500009008cc1221be9061951221ca1217929098
:10351000041ae0f521740165219004137040e05411
:1035200002f97a1c7b04121660900413e0a2e050aa
:10353000097aa17b0475214080077a9b7b04752161
:1035400000a2e150047e8080027e0075230678236d
:1035500012261f7c1c7d04e5214e44018068e0a2f8
:10356000e050087aa17b04784080067a9b7b04783f
:1035700000059290044112263a7c227d0474d025e5
:1035800021f582e43408f5830592e048f9121666c5
:10359000740112235190041ae0f8600574026870f7
:1035a0002e900413e0a2e050087aa17b04784080ba
:1035b000067a9b7b047800059290046112263a7c7f
:1035c000427d04e84404f9121666740112235190f6
:1035d0000413e0a2e0e433f912165a759100900446
:1035e0001be0906182600474c8800274c0f0853270
:1035f0008285338312260f74021223517f03022423
:10360000f7c082c0835392fe906002740ff0900363
:10361000f8e004f064037002e4f0e0242590600018
:10362000f09008cc1221be9061951221ca9003f649
:10363000e05420f912165a1217929003f6e0a2e114
:103640005004d2f08002c2f0a2f0e43390600cf09b
:103650009003f6e0a2e1503575d90da2e55004784b
:103660004080027800e84403f5d9e0a2e550067aec
:10367000a17b0480047a9b7b0479061216367406bb
:1036800075d9001470fae5e170fc75e1957591004b
:1036900090618274c102271874f812244274fe12d9
:1036a000236c12260712373812179212372e122166
:1036b000be9061951221ca12376612341112375f1b
:1036c000f584e43ff585858482858583123747122a
:1036d0001786ee24121236f7a2e250180592e0f88f
:1036e000a3e0f58388820592a3a3e02402f8906109
:1036f000d5e028f0022c89f582e43ff583e02274be
:10370000f812244212373812179212372e1221bea5
:103710009061951221ca12376612341112375ff583
:1037200082e43ff583123747121786022cafee244e
:1037300014f582e43ff58322900464e0fea3e0ffe9
:10374000906002740ff022123960ee2437f582e4a3
:103750003ff583e8f0a3e9f07900eefaeffb2212df
:1037600037afee243922ee24361236f7906008f097
:10377000ee24181236f7906005f0ee24191236f791
:10378000906006f0ee241a1236f7906007f022746b
:10379000f812244212373812179212372e1221be15
:1037a0009061951221ca1237661237af022cafee24
:1037b000242cf582e43ff583e0906000f0759100e1
:1037c0009004cce0906182f02274f112244274fee5
:1037d00012236c1226077521007522007c6b7d0474
:1037e000801b888289831239538c828d83eef0a3eb
:1037f000eff088828983123409882189228c828d96
:1038000083123953ee4f70398c828d83eaf0a3eb2b
:10381000f08a828b83e4f0a3f0aa21ab2285328266
:1038200085338312260f74021223517f080224f776
:10383000e5232527f8e5243528f98a828b83122c85
:1038400014eef8eff988828983a3a38a848b850517
:1038500092a3a3e0f523a3e0f5240592e0c395230a
:10386000f523a3e09524f5248a828b83a3a3a3a345
:10387000a3a3e0f525a3e0f526c3e5239525e524dc
:103880009526a2d265d033403e8a828b8312304384
:103890008a828b83a3a3a3a385828485838512391f
:1038a0005cc3e52398e52499a2d265d033500d85f9
:1038b0008482858583e523f0a3e524f08c828d83c3
:1038c000eaf0a3eb02381888828983a3a3a3a3a3f9
:1038d000a3e0f527a3e0f528c3e49527f525e495b3
:1038e00028f526c3e5259523e5269524a2d265d0a3
:1038f0003350288a828b83a3a3a3a3a3a3a3a3e00b
:10390000a2e7500302383088828983a3a3a3a3a32c
:10391000a3a3a3e0a2e750030237e288828983a32e
:10392000a3a3a3858284858385c3e49523fce495c2
:1039300024fd123953c3ec9eed9fa2d265d03350c3
:103940000b858482858583ecf0a3edf0e8fce9fd2e
:103950000237fde0fea3e0ff2290049712396022b7
:10396000e0f8a3e0f92274f712244274fe12236ceb
:10397000122607ea4b6031a2afe433fec2af123722
:10398000c98a828b838016aa82ab838582848583d1
:10399000850592e0f582a3e0f5831237c9e58245fb
:1039a0008370e4eea2e092af0227a074f8122442e2
:1039b00074fe12236c122607eaf8ebf9e849606cf2
:1039c000a2afe433f521c2af90046b123a37ea4b51
:1039d0007054900464123953eefaeffb8a828b83a1
:1039e000a3a3888489850592a3a3e0fca3e0fd0539
:1039f00092e09cfca3e09dfdc3ec9405ed123bc658
:103a00004024eefceffdec2412f582e43df583e06a
:103a1000d2e4f088828983eaf0a3ebf090046b1281
:103a2000304379018008e521a2e092af7900022cb1
:103a300089f582e43ff583e0faa3e0fb2274f512f6
:103a4000244274fe12236c12260779001219de8ab2
:103a5000238b2479771219fc9061b1e4f0e070f8bf
:103a60007401f0e0640170f890046b12395c90040a
:103a700064123043e8497012123bcee594a2e24052
:103a800003023bbe759400023bbe88828983123ad2
:103a90003790046beaf0a3ebf088828983a3a3122a
:103aa0002d7588828983a3a3a3a3e02521f8a3e031
:103ab0003522f9e824fdfee934ffff906060748050
:103ac000f0e521c39523e5229524fb900464e0f5fd
:103ad00084a3e0f585e5232401f8e43524f9858401
:103ae00082858583a3a3a3a3a3a3a3a3e02410603b
:103af0002f24fc600624fc600780451234db8069bb
:103b0000123bc4501688218922c3e89ee99f4008d1
:103b1000e82401fee43522ff1230401236018049cc
:103b2000123bc4501688218922c3e89ee99f4008b1
:103b3000e82401fee43522ff123040121798802954
:103b4000900495e0a2e05005123698801ca985e506
:103b5000842412f582e439f583e0a2e45008c2e43b
:103b6000f012378f80031236ffaa21ab2279301270
:103b700019f0eefaeffb79401219f079541219fca2
:103b8000e521c39523f8e5229524f9c3e89401e9da
:103b9000123bc6500c1217aae5e170fc75e12180ba
:103ba0001d900367e0a2e04012aa21ab221219ea9d
:103bb0009004ab12219a123bce80031217aa12185e
:103bc000b202310cc3eb9400a2d265d03322e5a837
:103bd000f8c2af9004d8e0c2e0f0753400e8a2e784
:103be000a2e792af22000000853487c2af22c0e076
:103bf000c0d075d018c092c082c083c0f074fc12cf
:103c0000233b5392fe9004d9e0601c12165490039b
:103c100067e054117008e5c654384487f5c690042f
:103c2000d9e4f0c2c78020c2c7aa32ab331217a4ae
:103c3000e9640170129004d97401f08532828533f1
:103c40008312218e1218a67534007404122351d0e9
:103c5000f0d083d082d092d0d0d0e03275c300743f
:103c600020c39afa744e9bfbeaf5a2ebf5a353929c
:103c7000fe22c02175c301e5a2f521e5a375c300ad
:103c8000f9e5212420f8e9344ef9e8c39af8e99bd4
:103c9000f9e8f5a2e9f5a3d0215392fe2274f512ba
:103ca0002442e9feeaff8b21753400a2afe433f52c
:103cb00022c2af90057ae0f52474012524540ff553
:103cc00023900579e0652370057900121a56e524e2
:103cd00075f003a4f8a9f0740728f8740539f9e819
:103ce0002442f582e439f583eef0e82443f582e4da
:103cf00039f583eff0e82444f582e439f583e521d2
:103d0000f0e52390057af0e522a2e092af7f04026d
:103d100024f7c082c08374fc12233be5a8f8c2af2d
:103d2000e5958532828533835392fef0e596c0e0b7
:103d300074011223a5d0e0f0e597c0e074021223cd
:103d4000a5d0e0f0e8a2e7a2e792af74031223a5a2
:103d5000e4f085328285338312218e74041223515c
:103d6000d083d08222c0e0c0d075d018c092c0826b
:103d7000c083c0f0121bd0123d1290060c12219a83
:103d8000e58955ab900610f0e580900613f090069b
:103d900010e0f4f5899062d0e0f8a2e15027900697
:103da00010e0a2e5501f53abdf9062d0e0a2e0e448
:103db00033900616f0900610e0c2e5f07b307a00f2
:103dc0007906123c9d900610e0600e7b007a007927
:103dd00006123c9d7900121bdcc2c5d0f0d083d006
:103de00082d092d0d0d0e032c0e0c0d075d008c030
:103df00092c082c083c0f0121bd0123d1290060cfc
:103e000012219ae58a558df8900611f0e5909006fa
:103e100014f0e8f4f58a7b017a007906123c9d796a
:103e200001121bdcc2eb80b3c0e074f012253d90a0
:103e300061a9e06017c2afe589f8e5abf975ab00a1
:103e4000e4f090624bf0888989abd2af90061be01a
:103e5000640f7012e5c7f8900368e0f5c790ff1c87
:103e6000e0f4f5ae88c7e5bbf8e5baf521e8fb90cc
:103e7000061be025e0f8e433f9741c28f58274068b
:103e800039f583e521f0a3ebf090061be02410fb4d
:103e90007a007906123c9de5a8f8c2af9004d8e0fc
:103ea000c2e2f0753400e8a2e7a2e792af7f020217
:103eb00025a4c0e0c0d075d018c092c0f0e5d1f8fc
:103ec00075d100c2c0a2e350097b037a00790412c5
:103ed0003c9dd0f0023de1c0e0c0d075d010c09252
:103ee000c021c022c082c083c0f05392fe9007144c
:103ef000123ff2602a9006cfe0700c7401f07b0054
:103f00007a007904123c9dee900714f0e5c1c0e000
:103f100074162521f582e43407f583d0e0800be5a3
:103f2000c4a2e650069006ce7401f0023fe1c0e064
:103f3000c0d075d010c092c021c022c082c083c042
:103f4000f0c2e95392fe9006d1e0fa9006d0e09ad2
:103f5000543ff8602974d22af582e43406f583e0f0
:103f6000f974012a543f9006d1f089c1900712e0fc
:103f70006870197b027a007904123c9d800ee5a8d6
:103f8000f8c2af9004d8e0c2e31240608053c0e0b2
:103f9000c0d075d010c092c021c022c082c083c0e2
:103fa000f05392fe90079e123ff26029900759e06d
:103fb000700b7401f07b00fa7904123c9dee9007bf
:103fc0009ef0e5f9c0e074a02521f582e43407f500
:103fd00083d0e0800be5fba2e65006900758740101
:103fe000f0d0f0d083d082d022d021d092d0d0d0c7
:103ff000e032e0f52174012521543ffea3e06e225a
:10400000c0e0c0d075d010c092c021c022c082c014
:1040100083c0f0c2ea5392fe90075be0fa90075a21
:10402000e09a543ff86029745c2af582e43407f57d
:1040300083e0f974012a543f90075bf089f99007f7
:104040009ce06870197b027a017904123c9d800e15
:10405000e5a8f8c2af9004d8e0c2e41240608081c5
:10406000f0753400e8a2e7e433f9e8a2e792af2262
:10407000c0e074f012253d906206e0f89007f6e08b
:1040800048f0906202e0543ff521752200740478f4
:10409000211223289007f6e04521f0a3e04522f005
:1040a000906204e0543ef5217522007409782112d3
:1040b00023289007f7e04522f09007f6e0540460cb
:1040c00007e054fbf0121d389007f7e0540160132d
:1040d000e054fef0900805e060097b037a00790760
:1040e000123c9d121d689007f7e05420600de054cb
:1040f000dff07b027a007907123c9d758b00c2e8e5
:104100007f020225a4033f0000030004280d980845
:104110009007900194011b0195111b08f009398249
:104120001f0ea4fecd82210622fb38181816211876
:10413000f0ef3818f2ed3828f2eb3868f003392a3e
:104140001fe73f08f00428ba3868f0393c08f10549
:104150003c88f1173ca8f10e3ce09f2c1f01281071
:104160004a291fd63f15d0033827d00938009004bc
:10417000289f3f0128154101980128014a25d01f99
:1041800038041f831f0ea4fecd04220538142120fd
:104190002807a0083f0628681527d0e939202807f6
:1041a000d0f238832178f10238042188f1083d06e5
:1041b00028a14001f004288438042807a005284dd0
:1041c0001528f1163c68f1143d77cf124059920240
:1041d000d80f3912d00739699222d0043979924226
:1041e000d004380528ef151e3fc09f04286c3f08f7
:1041f000f1233c88f1203d094028f1103d4540f76e
:10420000c759f2083d9303131183e1b9f00f3c2322
:10421000e00d3f09d8ea38f9c30b3f68f1033d5977
:10422000f2f23c09d8f9390528bd150528f0150129
:10423000900128214a051f48f00c3c08f10a386813
:10424000f1033c98f106390c960528f915022884eb
:104250003f47a00c960528f315531f0528e31507c3
:10426000288ced0528ec1501280195711b01280cff
:10427000e40528e515511f88f10b3808f107386867
:10428000f109390128214201f00b3947d0093835ad
:1042900021063f28f1033838f10339351f341f0454
:1042a000280ce047d0033903280ce80528c8155727
:1042b0001f28f00638561f811f021f38f0063930bc
:1042c000215b9005283b15fd3f88f1033d0428f74d
:1042d000150528811547d0133808f10f392c470ce4
:1042e000f00c38c403b4125c110c3e04f00a38c15f
:1042f00003802801a0411b063f3021043f07284cc2
:10430000ed4c1b5b9047d0173827d00328e8390eb7
:10431000a4fecd02220d39002208381021002914f4
:10432000e00328dd3c4c1bf13f05289e15ee3f467f
:10433000181221033f0528021588f130390528118c
:10434000150128fb41302100291be00a3d0428f615
:104350001505280715f6c35192166a3b906b0804a1
:1043600028ed150428fe150bf0fb3917d004382d65
:104370001f0128c43f0328214701f00839032831d1
:104380004701f00439a2958090033fc29500920343
:1043900028b615201b54900128b33f08f1053905b4
:1043a0002111900128214a38f103390021023f30c0
:1043b0002110216a030428c2156b033141224128d0
:1043c000f1093d02f00239f29101f00b39ff28f1b9
:1043d00091083f02f00239529201f00339ff28f1af
:1043e00093f7cb1b06023907a4b20c073d47d00355
:1043f000286e3824900328753f1690b6080428b11b
:1044000015a6030428ae153be0f7ce28f1703c0159
:104410002807a0f090a00668f1323d149030f00516
:104420003938f103285e38073f50f003285a3958cd
:10443000f10328573838f104380328ab15033f033c
:1044400028891503287515012807d0033907a156b7
:104450003f424130f00c3907a112d0033807d84e43
:104460003887a0c14041d04a38f7ce483f38f103e1
:104470003822d0443807d8423907a1403f78f1129a
:104480003847d02d3800f0033860f00639c14011ac
:10449000d0073887a0113f10f0033820f0ab3977f0
:1044a000cf0b3f00f0033810f0a539414181d00413
:1044b0003903285015093f03286c1568f105394167
:1044c0004141d0023907b810f006390328311501ef
:1044d0002807d0033807d8123907a1103f40f0024f
:1044e00028fc390328141507d8f838083fa103839e
:1044f000403112310511d0023907a14bf0063c04be
:10450000281d1504282e15fa3f042818151bf0fd48
:104510003d38f103380328a115f7cd0328214701c1
:10452000f005390328314701f0033807a2f7ce22fe
:104530004082d00a3806030428141506937606260e
:1045400011960404280e1571034112002871c02130
:10455000070438e7cf4198043f17d0043951980732
:1045600028214817d00538f295202800901d3f07d4
:10457000d20438c2950092183f07d10438d2950072
:1045800094133f07d40438e29500980e3f8090289a
:10459000f10a3d3190a10631f0063903a4b295022b
:1045a00028aa1500a1a2950228a615201b28f163b0
:1045b0003d08f10a39012807d00739072851411170
:1045c00028c14a012807a017d20539e3cf8ad002b3
:1045d0003813a007d20539b3cf4ad0023843a0839d
:1045e000d01e3931031112310521d0073931990715
:1045f000282148002915e0133f529502287c1545d3
:104600004003d10d39429502287615281f219907bc
:1046100028214803d20438629502286d1573cf8390
:104620004808f1093977cf17d0063907d203390a7c
:10463000d1023887a0349007d2073807d803383022
:1046400090543f07a8023ff7c718f15a3927d04cba
:1046500039314011d0493987d0073917d04539074a
:10466000d203390ad1413805f04b39414001f048b5
:104670003850903b3f68f1153878f139381490176d
:10468000d03d3907d23d3987d003383490393f07c0
:10469000d1373911900128214a409003286e152501
:1046a0003f47d01c38249007d30c391190012821a2
:1046b0004a87d008385144002911e0043a514c028d
:1046c0003877cf17d01b3987d003383490193f077c
:1046d000d31739c14021d01438073f17d00f3907fd
:1046e000d303383090023f009044900a3f24901743
:1046f000d0053907d305393490033fa09f44900279
:1047000021c190511b8121342124f0083927d00484
:10471000390c9cfd2bae3f10904490b7cf34f00e77
:104720003953210328e195711b541f0f28cc95069e
:10473000282141f1c081111c09143f0190511b0730
:1047400028f19f711b802114f00128863854f0fd58
:104750002b0a380128ad3f541f032864151028ccbc
:10476000ed03286d1576217821501f0128a29a218a
:104770007001b2218001b221802ce30328601574fe
:10478000210128ace408f1073c88f1033d02289799
:104790001503282115011f0128349d0328501520d9
:1047a0001f002168f0093d069058f00339072836ac
:1047b0004102289315fa3f0728504078f104393315
:1047c0001f321f0421500000dc01287c3828f11022
:1047d0003d8340f7cb31031112310521d00339035a
:1047e000d1033900d8103807a41b901a90163f0047
:1047f000d80128683998f107394b700128e2412b1c
:104800000800288e3f102807a04b701bf0fc2bedf2
:104810003c4a70224128f1303d02f00239f29112f7
:10482000e0b20cfc2be23c419031061111ff2be26f
:104830009f3204520022111a042a043240002862d6
:10484000c018f1033927d00d3922f00939072801a2
:1048500041b109002921e0093a0aa1073f42f003ca
:1048600039face033f62f0f93818f1253977cf0acb
:10487000d1223887a0203f02f00239529212e0b2d2
:104880000cfc2bb33c68f1123d38f1153887d0137e
:10489000390128314201f00f38402807a00728913c
:1048a0004231c0c1a00728914a063f0228019071f9
:1048b0000621121a04ff2bf29fb2084be0a6030256
:1048c000280c1526030228091568f1293cfbf0275e
:1048d0003c6290467002280115d237042860966227
:1048e000904670062d0128f915c23778f11839d095
:1048f0004000d81538dbf0133c829046700128ed5b
:1049000015d237764400d40338060e023f060d4117
:10491000700128e315417086120128df153290b22c
:104920000c053d46700128d915fb3f08f1063941b9
:10493000721128c14a012807a0ef28f7cf28f11edd
:104940003d83403090a00631031112310521d00380
:10495000398295043f30f0043972950028cc155304
:10496000c843d0023823a007d4023803a130f00294
:104970003903a2834892950028be1506900bf005d6
:10498000380128ab15591ffb3f0ea4fecd012204b0
:104990003902286a15fa3f551f1121031f24900878
:1049a000f10f390ad1033987d02438314011d02191
:1049b0003905f02139414001f01e3850901b3f4825
:1049c000f1073828f1033858f1063987d0143877c1
:1049d000cf1490113f78f1053911900128214a092f
:1049e0003f98f10939829500288a15281f549003b1
:1049f0003f009044900ea4fecd03220439022834d7
:104a000015fa3f13212c1801210321741ff1900086
:104a100000f1370190511b0728f19f711b80213253
:104a2000210728914231c00728914abf28f7cf2893
:104a3000f1063c88f1043d92955e15281f44f0383c
:104a40003814f00a3854f0fb2b8e3801280ce4019e
:104a500028f615fc2b023f01289015009027d0283e
:104a60003902d8083838f12439329001289215e2f9
:104a700037193f19e089f2043c38f11a3959923854
:104a8000f103390128861512409103002951e212e1
:104a90000e12d0f038012886150128b915124001f0
:104aa0002891153199072821482c18fe2b553f01d4
:104ab00028104a0028a915fb2b2b3ff09f043fd05c
:104ac0009f023fb09f0028d0152c1ff23f28f10510
:104ad0003c68f1033d1490053f2090023f10904444
:104ae0009041980728214838f1fe2b0a380028b554
:104af00015fe2b063f217011e021800200012821c4
:104b00004107282148217811e021880200f7c77663
:104b10001571033112a10501d4023907a8042864d4
:104b20009631150238f7c70428c4f6fb3c0200fe94
:104b300028f7cf641551417111a10501d80339013e
:104b40002807a064911f150338fe28f7cfc4f1fb96
:104b50003c0200f7c753155141022807a00ad403ad
:104b600039fd28f7cf5111a10501d4023907a8c496
:104b7000910428659607150238f7c7563124f2fbd1
:104b80003c02000028db150028ec15412d160c0214
:104b900000f7c73415d032d332234268f1093941c6
:104ba00041904041d0043850000306023f030331d6
:104bb00042022807a00ad404395100fd28f7cf1378
:104bc000064492042865960028b9150028ca15568f
:104bd00031ff28e19f4070060c023813068ea08139
:104be0000064e044f5f83c0029f4e2a4f2ed3c0353
:104bf000f0023807a8d32fd02f02009bf0023c020e
:104c00000007a12de0020098f10938102807d00311
:104c10003908f1043831990728214808f10c390185
:104c20002807d00938072851411128c042010c0338
:104c300038072850491190082807d005380628b1b0
:104c400048f728f7cf042807d005380628a148fbe5
:104c500028f7cf3021291f0200311fff28f19f4183
:104c60001b301f312102000221012103215323099e
:104c7000380628d14001d112384198072821480b25
:104c80003f54230c385021f1910000f137741ff18b
:104c9000900000f13768f0023c2b1f0190511b81fe
:104ca000210728f19f711b80210728914231c007fd
:104cb00028914abf28f7cf32213421020008280763
:104cc000d007390628b14001f00438082807a002af
:104cd0000004280d98fe2bf43f402807d00d390e14
:104ce000a4fecd012204390028bf15fa3f661b112e
:104cf0002100291be002000728a64a0ea4fecd01d0
:104d00002204390028b115fa3f01283142b1094186
:104d1000e0053a08384bf00c38ea3d0728a142611b
:104d20001be73f0728914271cf0728914af73f07b9
:104d300028914281a20728914ada3f0ea4fecd02b3
:104d400022043900289115fa3f4618122100291b28
:104d5000e01bf00639581f0628e0400128004a02ef
:104d60000017d00a393122063817a04198072821a8
:104d700048033f0728a6480200124038f1093802cc
:104d8000d807399103002941e2120e120d12480290
:104d90000047a07b280c9c10215215ff2b5e15b7f5
:104da000cf020059f203396391083f69f20339e3f6
:104db00092043f79f203394396020004280d98fad1
:104dc0002b143f02d407389103002901e211700629
:104dd000286148020088f10a3c01283141072881f6
:104de0004ab1460328314fa1460f3f0728894a2878
:104df000f1063d31440328314f5140053f552851bc
:104e0000950328314f81110328214f0200e3f3035a
:104e10003cf190033f23e051920628614a06284363
:104e20004802007b21772141900000f13770217505
:104e3000217a218cee0415521f801f02004c1b00aa
:104e40001f47d0033827d009390ea4fecd00220316
:104e5000390b15f73f1021020004280d9838f1fe98
:104e60002b2738fe2b3c3fd23202180119210601b4
:104e7000d41a381218162162f003392a1f2d3f1256
:104e8000f2153822f22838fe2bef1568f0063c6147
:104e9000900128114afe2bb8153021280304280d53
:104ea00098f92b373f01d114381421202807d00d51
:104eb0003878f1123904231038714401f002398135
:104ec00044002911e0714c083f202807a0053f014c
:104ed000d20538152127a0d22f020011d006381094
:104ee0002104280d98fd2bf33ff2ce5200121bf443
:104ef0003f03060302020303020602030301050245
:104f0000020100010101010000030200000500028e
:104f100007070002030101010202010f0008030557
:104f2000050207040806060503040401030602023d
:104f30000101090101020101020100000003020256
:104f40000105050201010305000100030100000045
:104f500002010404020302040104010074f5122397
:104f6000d3eafeebff8923e9c394114003752310b4
:104f7000852321752200782112261b121e0474023b
:104f8000122351741065236026852382aa8274102f
:104f9000c39af52195e0f522782112261b7c007d2d
:104fa00000ee2afae43ffb121e0a74021223510299
:104fb00054de74f01223d374fe12236c1226078a77
:104fc000848b850592a38a828b830592e0600624f8
:104fd0000260608065900640e4f00592e0f52505ea
:104fe00092a3f0752200240250020522e4c522f5a6
:104ff00021e4f523f524f526f527f52890095a78bc
:10500000251220bf90095e78251221117408782599
:1050100012208d782179251221249009627821129d
:10502000213790063c782112217fea2402f521e401
:105030003b801a0592e0700280fe1275b174ff1277
:105040005cc374021277287405f0e4f521f5227828
:105050002112261b9006411264ac790612674b128e
:1050600023d1740212235185328285338312260f95
:1050700074021223517f080224ab74e81223d37404
:10508000fe12236c12260774fb12233b8a848b8545
:10509000752d00752e0085848285858378211221e7
:1050a00070e5c7c0e074041223a5d0e0f090036857
:1050b000e0f5c7858482858583a3a3a3a385822f7a
:1050c0008583301275fa8a29e4f52af52bf52c78b8
:1050d000291220bf90f7e8125284f528740b782526
:1050e00012208d78297925121e755003025234053d
:1050f00092a3a3a3a3a3059290f7e4125284740b86
:10510000782512208d782179251220aceafee52140
:105110005403fc700302519f74031223a574fff023
:1051200074021223a574fff074011223a5125279a0
:105130008c82aa827404125a2550057404c39cfe02
:105140008e25752600782512261bac84ad85740249
:105150001223a5e5822afae43583fb121e047402a9
:105160001223517904ac32ad338521258522268561
:10517000232785242874027825122074aa25ab26bb
:1051800012142ce5842ef584e43585f585852f826f
:10519000853083e0c39efe90096678211220bfee21
:1051a000c394044031eef9ac84ad85852125852278
:1051b0002685232785242874027825122074aa25a1
:1051c000ab2612142c8e25e52554fcf8e58428f531
:1051d00084e43585f58574035efc605e74031223f8
:1051e000a574fff074021223a574fff0740112235a
:1051f000a51252798c25752600782512261bac84c1
:10520000ad8574021223c1121e047402122351ac24
:1052100032ad338e25e4f527f52878217925122043
:10522000ac74027821122074aa21ab227404f91202
:10523000142c8006752d80752e0174041223a5e0b0
:10524000f5c7900640e52df0a3e52e12649974078a
:10525000126a2012261b1267411223d174021223f4
:1052600051740512235185328285338312260f74bf
:10527000021223517f100224ab74fff08532828525
:105280003383f022e0f525e4f526f5272274e812b1
:1052900023d374fe12236c12260774c012233b8a98
:1052a000828b838582848583850592a3a3a3a3e053
:1052b000fee5c7ff900368e0f5c790f7e8e0f52545
:1052c000e4f526f527f528740b782512208deec31a
:1052d000944140027e400592782912217078257908
:1052e00029121e7540030253c8852921852a22856b
:1052f0002b23852c248e2de4f52ef52ff5307821e7
:10530000792d1220ac78217925121e755005e529da
:10531000f404fe90f7e4e0f521e4f522f523f5240a
:10532000740b782112208d782979211220ac8529df
:1053300021852a22852b23852c24740f7821122085
:1053400074e521f5238523c7ac29e52a4480fd8e29
:1053500082858225752600ec2ef521e43df522c3d9
:10536000e5259521e49522500c782512261b740220
:105370001223c18049e525c39521f525e49522f541
:1053800026782512261b74021223c1121e047402f1
:1053900012235174012523f5c7782112261b7c00a6
:1053a0007d80c3e49521fae49522fb74021223a5c3
:1053b000e5822ef8e43583f9e82afae93bfb121e70
:1053c00004740212235180027e008fc7ee900640c3
:1053d000f0f525f582ac827d00240112570ef526ea
:1053e000f52790096678251220bf740878251220c9
:1053f0008d7821792512212490096a78211221378c
:1054000090063c782112217fa832a9338821892275
:10541000782112261b7a3c7b06790512674b1223f2
:10542000d17402122351744002526374f51223d3d3
:1054300074fe12236c122607eafeebff7523008e22
:10544000828f83a3e0fb74ff6b601e7c007d007a7b
:105450000479008e828f83e025e01261f01267509c
:105460001223d1e970037523018e828f83a3a3e0f9
:10547000fb74ff6b60347c007d007a0379008e82c0
:105480008f83e025e0fee433ff74ae2ef5847409cb
:105490003ff58505921267501223d1e97004d2f0ce
:1054a0008002c2f0a2f0e4334223e523a2e05006da
:1054b000788079018004780079001254e3740e1228
:1054c0006a2012261b1267411223d1740212235143
:1054d00085328285338312260f74021223517f0393
:1054e0000224ab900640e8f0a3e91277d1e4f0a3e0
:1054f0002274ec1223d374fe12236c12260774c09c
:1055000012233b8a848b85858482858583a3a3a30c
:10551000a3e0f8c39440500488218003752140e53e
:10552000c7f5228584828585837825122170740fc2
:105530007825122074e525f5c7852182ae828e2359
:10554000752400782312261b85848285858378251f
:10555000122170ac25e5264480fd74021223c1128d
:105560001e0474021223518522c785848285858397
:105570001221be9006401221caee900644f0240586
:10558000e43400f526e4c526f525e4f527f528e002
:10559000f529e4f52af52bf52c90096e78291220cf
:1055a000bf90095e78291221117408782912208d84
:1055b00078257929122124900972782512213790b3
:1055c000063c782512217fa832a9338823892478c4
:1055d0002312261beefc7d007a3c7b0679091267bc
:1055e0004b1223d17402122351744012235185327d
:1055f0008285338312260f74021223517f0c0224fa
:10560000ab74f61223d374fe12236c12260774f9be
:1056100012233b1216787f007e00ac32ad3374014a
:105620001223c1eef91219d2e9601c74011223c1d0
:10563000853282853383e0f912166ce960089006a2
:1056400040126eba800e0f0eeec3940840cc900646
:1056500040e4f0a3f0ef12622d1262517407126a57
:105660002012261b7c007d007a3c7b06790712679e
:105670004b1223d174021223517407800e126a2038
:1056800012261b1267411223d17402122351853254
:105690008285338312260f74021223517f02022463
:1056a000ab74ec1223d374fe12236c122607e9feae
:1056b0008c258d26900640eaf0a3ebf0eea3f0f5e2
:1056c00029f582ac827d00240312570ef52af52bb2
:1056d000f52c90097678291220bf740878291220b9
:1056e0008d7821792912212490097a782112213785
:1056f00090063c782112217f782512261b7a3c7b6c
:1057000006790712674b1223d174020255ebe43479
:1057100000f522e4c522f521e4f523f5242274f6f0
:105720001223d374fe12236c12260774fc12233b3f
:10573000ea14600614603b0257d190060be0240285
:105740006005146009800e9006407484800c9006f9
:1057500040748a80059006407485126a0d12261bdb
:105760001267411223d1740212235190060be4f008
:10577000805f7e00aa32ab33eef91219cce9604aa1
:10578000ee90064012623e900641f074011223a58d
:10579000e05401900642f074031223a5e090064302
:1057a0001269e67480f0a37404f0a304f0a3141249
:1057b0006a2012261b7c007d007a3c7b0679081249
:1057c000674b1223d174021223510eeec39408408a
:1057d000a3740402568b74f21223d374fe12236c4a
:1057e0001226078922ebfeea600d24fb6029147063
:1057f000030259cc0259e890060be0fa7440125aa1
:1058000025400302592ce0f87440c398f52402594e
:105810002e90060b74fef0ee70030259e890060b12
:10582000e0a2e75027eec3944140047f408002ee9f
:10583000ff7ccb7d05effb1259fd1267501223d17f
:10584000e9cec39efe70030259e880d9c394045088
:105850004ce07016059290097e12262e7b017a008c
:105860007908121a0e740412235190060be0f87492
:1058700004c398125a30500ae0f87404c398f52112
:1058800080028e21125a1aab211259fd1267501252
:1058900023d1e9cec39efe90060be029f0e0c3942d
:1058a000045003025817e0640470189005cbe060c0
:1058b00003025811a3e0c3943d400890060b74ff07
:1058c00002581690060be0f89005cce02404c3982b
:1058d000f8c39e5004882480028e24e8601e90063f
:1058e0000b125a1aab241259fd1267501223d1e938
:1058f000f8e52468700690060be029f0e524cec395
:105900009efe90060be0fa9005cce079002404504e
:1059100001096a49600302581790060be0f97acb37
:105920007b05121b0a90060be40258168e24e52410
:10593000c39e50030259c885242575260078251278
:10594000261b74cb2afae43405fb121e04740212df
:10595000235190060be02524f0e0c3940450030289
:1059600059e89005cce0fc90060be0faec2404f832
:10597000e43400f9ea98e499406e74042cf524f9b3
:105980007acb7b05121b0aa82490060be0c398f083
:105990007c0090060be0f8ecc39850bd8c82a88286
:1059a000852425e82525fae43400fb74cb2af5820a
:1059b00074053bf583e0c0e074cb28f582e4340540
:1059c000f583d0e0f00c80ca7900801ee5c7f5258c
:1059d000900368e0f5c790ff25e0f974ff69600562
:1059e0007a00121c0c8525c77901853282853383a4
:1059f00012260f74021223517f060224ab7a027919
:105a000000e52225e0f525e433f52674ae2525f5dd
:105a10008474093526f585059222e0f874cb28fcbc
:105a2000e43405fd22c39a125a30a2d265d0332243
:105a3000f895e0f98e25c3e89525e994002274f6df
:105a40001223d374fe12236c1226078a828b837c66
:105a5000007d00e0f8c3940340057c800d805485f0
:105a600082848583850592a3a3e870150592a3e03f
:105a7000f58f0592e0600553f7df803743f720800c
:105a80003274016870150592a3e0f5f60592e060a6
:105a90000553f7bf801d43f7408018e0600478008d
:105aa00080027880e5f75460fa0592a3e0541f481d
:105ab0004af5f7125da2125db3740502567d74f6c5
:105ac0001223d374fe12236c1226078a828b837ae8
:105ad000007b00e0600814600f146016801e125beb
